:4000000000100020110000008D0300008D03000008B500F0D5F9C04610B5214C22688023DB0213432360182000F018FB22681D4B134023601C4A1D4B1A6021221C4B1A605A
:4000400020221C4B1A6010221B4B1A6011221B4B1A6030231A4A13601A4A13601A4A13601A4A136082221206194B1A60194A1A4B1A601A4A1A4B1A601A4B1B4A13601B4AC8
:4000800013601B4A1B4B1A6009201B4900F0CCFA092000F0BDFA0022184B1A6010BDC04600010B40FFFFFBFF0600008004010B400C02024014020240180202401C02024025
:4000C0002002024024020240280202402C02024008010B40FE00008000000240FE0000C040000240170000808000024004000240CF00008044000240710800000C020B40BE
:4001000038B572B60122414B1A700024404D0CE063001B195B00EB1899881A8858880004104300F0B3F90134E4B2012CF0D93849081C0C302C3100F08DF999231B04354A7A
:4001400013603549354A1160EE210902344A11603449354A1160A0210906344A1160344A13608022120333490A60C02000043249086032490B6032490A60324A1360324ADE
:40018000324B1A603822324B1A60324B197802220A431A70304A11783C208143142001431170197816220A431A706F222B4B1A602B4A2C4B1A60802292012B4B1A602F22D5
:4001C0002A4B1A606D222A4B1A602A4A2A4B1A6008222A4B1A606021294B19605D2329490B6029482949086029490A60294A1360D8221201284B1A600423284A1360284AC6
:400200001360FFF709FF00F057F938BD1C700F40AC1200000000014008380000040001400C0001400400990000500F4004500F4010500F4014500F4018500F4020500F40B5
:4002400024500F4030500F4010EE0E00200105402000004000700F4001700F400000044000102B00080004400C00044018000440000104408E6DC000080104400C01044086
:40028000180104400002044008000300080204400C0204401802044008030440000404401804044010B5064C2378002B07D1054B002B02D0044800E000BF0123237010BD2A
:4002C00048010020000000008012000008B5084B002B03D00748084900E000BF07480368002B03D0064B002B00D0984708BDC04600000000801200004C010020C800002021
:400300000000000070B5051C00230020012609E0321C9A402C1C14409C400A4001339A40224310431F2BF3D970BDC04670B590B062B600F0FBF86C4611496B460A1C61CABD
:4003400061C323CA23C316681E6092889A80684600F052F95520AA21FFF7D4FF021C6846084900F087FB684600F0A6FB20180649042200F06DFB684600F03EF9FEE7C046D1
:4003800084120000A4120000A8120000FEE7C04608B5094B1B681818084A821A802A02DC054A106005E000F027FB0C23036001235B42181C08BDC046CC000020900100206D
:4003C000F8B50F4F0F4E002412E031687368B568221C02E001C901C30432AA42FAD1F168221C01E010C304328A42FBD11036013F002FEAD100F006FBFFF798FFFEE7C04661
:4004000001000000C813000038B500230D4C0E4D0E4808E0032B02D89A00515900E0211C9A00115001332F2BF4D9FFF769FE0022074B1A608023DB05196801220A431A60E6
:4004400038BDC0468D0300000000000000000020C0000020F0B500220027FF239C4611E0BB00C658F3B26446A64308E054000C192578AD1964782C700132013BDBB2002B9A
:40048000F4D10137072FEBD9F0BDC04608B50A1C002100F0E6FA08BD064B1B68002803D0802212061A4301E05A005208014B1A607047C04680031A4008B5094A094B1A6040
:4004C000094A0A4B1A600C22094B1A60094A0A4B1A600A4A0A4B1A600120FFF7DDFF08BD08400400800010400240040088001040C00010404408420000031A404C0042001E
:4005000040031A4008B500F069F808BD08B500F01DF808BD08B5044B1968802212060A431A60FFF7EFFF08BD0000074008B5064B1B78002B04D1FFF7E9FF0122024B1A704D
:40054000FFF7E8FF08BDC0466401002010B5124A124B1A600023124A13600121114A1160114A12480260072411480460114803601148016011490A60114A1360114A1360A1
:40058000114A1360114A1360114A1360114A1360114A136010BDC0460B000002000007404000074048000740070000800003074004030740100307404400074000020740AB
:4005C00004020740880E0740C80E0740480F0740080F0740C80F0740880F0740044B1968044A0A40902109040A431A607047C04600000140FFFF0FFF38B5051C002402E0B1
:4006000000F088F90134285D0028F9D138BDC0461F23184001238340181C014B1860704700E100E001BE704738B5041C0D1C1F2802D90020FFF7F6FFA400024BE418206863
:40064000256038BD4000002008B5034B1B7A584300F06EF908BDC046D0000020F0B557464E464546E0B4041C00F06CF98046E51E2D2D73D83F4B1B78DBB2A34208D33E4B88
:400680001B78DBB29A463D4B1B78DBB2994631E03B4B1B78DBB2A34208D33A4B1B78DBB29A46394B1B78DBB2994623E0374B1B78DBB2A34208D3364B1B78DBB29A46354BCE
:4006C0001B78DBB2994615E0334B1B78DBB2A34208D3324B1B78DBB29A46314B1B78DBB2994607E02F4B1B78DBB29A462E4B1B78DBB299462D4B5E5D2F2E09D92A2C07D92F
:4007000019222B4B1A60052000F012F9192703E0274B1F683F231F40BE4206D2234B5A5D234B1A60052000F003F91F4AA4182278D2B2204B1A60204B52461A601F4B4A46FC
:400740001A600520FFF780FFBE420AD9174B5A5D174B1A60052000F0EBF802E00020FFF761FF404600F0F2F81CBC90469946A246F0BDC046C0F1FF0FC1F1FF0FC2F1FF0F75
:40078000C3F1FF0FC4F1FF0FC5F1FF0FC6F1FF0FC7F1FF0FC8F1FF0FC9F1FF0FCAF1FF0FCBF1FF0FCCF1FF0FCDF1FF0F3C1300002CFF0B4028FF0B401CFF0B4020FF0B40A5
:4007C000044B1A68C0231B021A4201D0012000E00020704700010B4008B500F0B3F8044B1968C02212020A431A6000F0AFF808BD00010B4010B500F0A5F8084B1968084AD2
:4008000011408024E4012143196019680A40802109020A431A6000F099F810BD00010B40FF3FFFFF38B5051C00F08CF8041CFFF7C7FF002803D0FFF7DDFF012200E000229D
:40084000084B1D40084B1868084901400D431D601B68012A01D1FFF7BFFF201C00F076F838BDC0460404040010020B40FBFBFBFF10B5244B1B685A0715D5234B1B685A0720
:400880000ED5224B9C69042214401F490868A0430860996991439961DB68002B00D098470420FFF7BFFF174B1B685A0518D5164B1B685A0510D5154B9A698020C000104015
:4008C000114A1168814311609969114A0A409A611B69002B00D098478020C000FFF7A2FF084B1B685A030CD5074B1B685A0304D5064B5B69002B00D098478020C002FFF792
:4009000091FF10BD10020B40E000002068010020FFFBFFFF04490F220B681340082BFBD0024B18607047C04608020740400207400230800804D0C0460138FDD1C046C04637
:40094000C0467047EFF3108072B6704780F310887047C046C046C046002934D00123002210B488422CD301242407A14204D2814202D209011B01F8E7E400A14204D2814290
:4009800002D249005B00F8E7884201D3401A1A434C08A04202D3001B5C0822438C08A04202D3001B9C082243CC08A04202D3001BDC082243002803D01B0901D00909E3E772
:4009C000101C10BC7047002801D00020C04307B4024802A14018029003BDC046190000000029F0D003B5FFF7B9FF0EBC4243891A1847C0467047C046014B18687047C046CF
:400A00004401002070B50E4B0E4D0024ED1AAD101E1CAC4204D0A300F35898470134F8E700F0C0FC084B094D0024ED1AAD101E1CAC4204D0A300F35898470134F8E770BD6C
:400A4000B0130000B0130000B0130000B813000010B50023934203D0CC5CC4540133F9E710BD031C8218934202D019700133FAE7704700000EB400B59CB01DAB04CB8222FE
:400A800002A992008A810A4A02908A604A6101225242CA81074A086110681D9A019300F073F8029A002313701CB008BC03B01847FFFFFF7F440100200023C25C0133002A35
:400AC000FBD1581E70470000F0B58D6885B0071C0C1C03920193AB4245D390228B89D20013423DD062690326564309692068F20F401A96190290021C0198013212187610FE
:400B0000964200D2161C381C5A050FD5311C00F021FB051E13D0029A2169FFF799FFA289184B134080221343A38111E0321C00F065FB051E0CD1381C216900F0C3FA0C23E9
:400B40003B60A389402213430120A381404217E0029B2561ED1825606661019DF61AA6600198A84200D2019D2A1C2068039900F090FAA2680020531BA36023685D19256018
:400B800005B0F0BD7FFBFFFFF0B59FB0039005938B890E1C171C19060FD53269002A0CD1402100F0D7FA30603061002803D103990C230B60C9E04023736106AD00236B612F
:400BC00020236B763023AB763C1C2378002B03D1E21B029211D003E0252BF9D00134F4E70398311C3A1C029BFFF76EFF013000D1A6E06969029A8B186B612378002B00D1B3
:400C00009EE0012252426A606A4600235B3201342B60EB60AB601370AB654E4F2178381C052200F02BFA002807D0C71B2B680120B840184328600134EFE72B68D90603D521
:400C40006A4620215B3211701A0703D56A462B215B32117022782A2A01D0099B0EE0059A111D12680591002A01DB099204E05242EA60022213432B60013409E02278303ABA
:400C8000092A04D80A214B4301349B18F6E7099323782E2B18D163782A2B09D1059B02341A1D1B680592002B0DDA01235B420AE0013400232278303A092A04D80A214B431C
:400CC00001349B18F6E70793234F2178381C032200F0D4F9002806D0C71B2B684020B84018432860013421781C480622671C297600F0C4F9002812D0194B002B06D1059B6D
:400D00000722073393430833059314E005AB00930398291C321C134B00E000BF07E005AB00930398291C321C0E4B00F091F804900499013104D06A69049953186B6143E713
:400D4000B3895A0601D40B9801E0012040421FB0F0BDC0466E130000741300007813000000000000C90A0000F7B5151C01930A698B68061C0C1C934200DA131C221C2B602B
:400D800043321278002A01D001332B602068800602D52B6802332B60216806270F401FD0231C43331B785A1E9341226892061FD5E11840313020C870211C5A1C4531097808
:400DC000A21840320233D17012E0221C301C019919320123089FB847013011D0009F01370097E0682968009F431A9F42EDDBD7E7221C301C01994332089FB847013002D127
:400E00000120404223E0206806212B68E26801400025042903D1D51AEB43DB171D40A26823699A4201DDD31AED1800270097009FAF420BDA221C301C01991A320123089FFD
:400E4000B8470130DCD0009F0137EFE70020FEBDF0B50D1C8BB0433506920590079304950B7E0C1C109A6E2B00D1A7E011D8632B22D009D8002B00D1B0E0582B00D0C0E018
:400E800045310B707B4D4EE0642B1CD0692B1AD0B7E0732B00D1A5E009D86F2B29D0702B00D0AEE00E68202333430B6036E0752B1FD0782B32D0A4E013680D1C191D4235A1
:400EC00011601B689FE0216813680E0603D5191D11601E6805E04806F9D5191D116000215E5E644B002E3BDA049D2D2276422A7036E0216813680E0603D5191D11601E6876
:400F000004E04806F9D5191D1E881160594B227E039308276F2A1ED00A271CE0231C78214533554D197011682368081D039510601E0601D50E6802E05806FBD50E88D90705
:400F400002D52022134323601027002E03D1226820239A432260231C002243331A7001E003930A276368A360002B03DB2568042295432560002E02D1049D002B0ED0049DDE
:400F8000301C391CFFF72CFD0398013D435C301C2B70391CFFF7E0FC061EF1D1082F09D12168C90706D5626823699A4202DC013D30232B70049E731B23612AE008681368DB
:400FC0004969050604D5181D10601B68196005E04606F8D5181D10601B68198000232361049D16E01368191D11601D68281CFFF763FD63682061984200D9236120696060B0
:4010000004E0251C42352B7001232361049E00233370079E05980096211C09AA069BFFF7A3FE013002D10120404221E02A1C059806992369079DA8470130F4D02668B607E0
:4010400005D4099BE068984212DA181C10E00025E0680999431A9D42F3DA221C0598069919320123079EB0470130DCD00135EFE70BB0F0BD7F13000090130000C9B2821889
:40108000904204D003788B4202D00130F8E70020704770B5814201D300230CE08C18A042FAD28518131C013B0BD351426618F65C6918CE54F7E7934203D0CC5CC454013386
:4010C000F9E770BD30B5002940D004390B68002B00DAC9181E4A1368141C002B02D14B60116033E099420FD208680A189A4205D113685268C01808604A6000E04B602160C4
:4011000024E08A4203D8131C5A68002AF9D11D685C198C420BD10968691858181960904214D114685268091919605A600EE08C4202D90C23036009E008680C18944203D10E
:4011400014685268001908604A60596030BDC0468801002070B50323CD1C9D430835061C0C2D01D20C2501E0002D3FDB8D423DD3204B1C681A1C211C002913D00868431BC6
:401180000DD40B2B02D90B60CC181EE08C4202D1636813601AE0486860600C1C16E00C1C4968E9E7144C2068002803D1301C00F04BF82060301C291C00F046F8431C15D0FA
:4011C000C41C03239C4384420AD12560201C0B300722231D9043C31A0BD05A42E25008E0211A301C00F030F80130EED10C233360002070BD8801002084010020F8B5061C08
:401200000C1C151C002904D1111CFFF7A3FF041C18E0002A03D1FFF755FF2C1C12E000F025F8A8420ED2301C291CFFF793FF071E07D0211C2A1CFFF70BFC301C211CFFF70D
:4012400041FF3C1C201CF8BD38B5074C0023051C081C2360FFF79CF8431C03D12368002B00D02B6038BDC0468C01002004390B68181F002B02DAC8581B18181F7047000015
:401280000000000045737461626C697368656420436F6D6D756E69636174696F6E200A200D000000255800000A200D0000300F40000400400F40000401310F4004320F4029
:4012C00004330F400C400F4007410F4005420F400E430F4002600F40E20638083E0458045F011E208610E408E6010E082F806F807280762082208680C280CA80DCC0DE2078
:40130000E2604A045C108010A204D210D620E68077087B0182018604DC031C102A012E045B0863028010870196049E019F08A701C604CA03D60202011101000003040506CF
:401340000708090A0B0C0E0F101112131415161718191B1C1D1E1F2021222325262728292A2B2E2F30313233343500004300232D302B2000686C4C0065666745464700302D
:40138000313233343536373839414243444546003031323334353637383961626364656600000000F8B5C046F8BC08BC9E467047CD02000009040000F8B5C046F8BC08BC8C
:4013C0009E467047A5020000D8130000C8000020800000004800000000000000900100200000E02EC05D00001800000000366E01040404000000000000000000000000006B
:4014000000000000000000000000000000000000000000006C130000000000000000000000000000000000000000000000000000000000000000000000000000000000002D
:401440000000000000000000000000000000000000000000E40000200000000000000000000000000000000000000000000000000000000000000000000000000000000068
:40148000000000000000000000000000000000000000000000000000000000000000000000000000000000000000000000000000000000000000000000000000000000002C
:4014C00000000000000000000000000000000000000000000000000000000000000000000000000000000000000000000000000000000000000000000000000000000000EC
:4015000000000000000000000000000000000000000000000000000000000000000000000000000000000000000000000000000000000000000000000000000000000000AB
:40154000000000000000000000000000000000000000000000000000000000000000000000000000000000000000000000000000000000000000000000000000000000006B
:0200000490303A
:0200000040239B
:0200000490402A
:200000000000000000000000000000000000000000000000000000000000000000000000E0
:0200000490501A
:0C000000000204C81193110104CE51B697
:0200000490600A
:0100000001FE
:00000001FF